{
  "_format": "hh-sol-artifact-1",
  "contractName": "GOG",
  "sourceName": "contracts/GOG.sol",
  "abi": [
    {
      "inputs": [],
      "stateMutability": "nonpayable",
      "type": "constructor"
    },
    {
      "anonymous": false,
      "inputs": [
        {
          "indexed": true,
          "internalType": "address",
          "name": "owner",
          "type": "address"
        },
        {
          "indexed": true,
          "internalType": "address",
          "name": "approved",
          "type": "address"
        },
        {
          "indexed": true,
          "internalType": "uint256",
          "name": "tokenId",
          "type": "uint256"
        }
      ],
      "name": "Approval",
      "type": "event"
    },
    {
      "anonymous": false,
      "inputs": [
        {
          "indexed": true,
          "internalType": "address",
          "name": "owner",
          "type": "address"
        },
        {
          "indexed": true,
          "internalType": "address",
          "name": "operator",
          "type": "address"
        },
        {
          "indexed": false,
          "internalType": "bool",
          "name": "approved",
          "type": "bool"
        }
      ],
      "name": "ApprovalForAll",
      "type": "event"
    },
    {
      "anonymous": false,
      "inputs": [
        {
          "indexed": true,
          "internalType": "address",
          "name": "previousOwner",
          "type": "address"
        },
        {
          "indexed": true,
          "internalType": "address",
          "name": "newOwner",
          "type": "address"
        }
      ],
      "name": "OwnershipTransferred",
      "type": "event"
    },
    {
      "anonymous": false,
      "inputs": [
        {
          "indexed": true,
          "internalType": "address",
          "name": "from",
          "type": "address"
        },
        {
          "indexed": true,
          "internalType": "address",
          "name": "to",
          "type": "address"
        },
        {
          "indexed": true,
          "internalType": "uint256",
          "name": "tokenId",
          "type": "uint256"
        }
      ],
      "name": "Transfer",
      "type": "event"
    },
    {
      "inputs": [],
      "name": "LIMIT_PER_TRANSACTION",
      "outputs": [
        {
          "internalType": "uint256",
          "name": "",
          "type": "uint256"
        }
      ],
      "stateMutability": "view",
      "type": "function"
    },
    {
      "inputs": [],
      "name": "MAX_ENTRIES",
      "outputs": [
        {
          "internalType": "uint256",
          "name": "",
          "type": "uint256"
        }
      ],
      "stateMutability": "view",
      "type": "function"
    },
    {
      "inputs": [
        {
          "internalType": "uint256",
          "name": "",
          "type": "uint256"
        }
      ],
      "name": "PRICES",
      "outputs": [
        {
          "internalType": "uint256",
          "name": "",
          "type": "uint256"
        }
      ],
      "stateMutability": "view",
      "type": "function"
    },
    {
      "inputs": [
        {
          "internalType": "address[]",
          "name": "wallets",
          "type": "address[]"
        }
      ],
      "name": "addToWhitelist",
      "outputs": [],
      "stateMutability": "nonpayable",
      "type": "function"
    },
    {
      "inputs": [],
      "name": "admin1",
      "outputs": [
        {
          "internalType": "address",
          "name": "",
          "type": "address"
        }
      ],
      "stateMutability": "view",
      "type": "function"
    },
    {
      "inputs": [],
      "name": "admin2",
      "outputs": [
        {
          "internalType": "address",
          "name": "",
          "type": "address"
        }
      ],
      "stateMutability": "view",
      "type": "function"
    },
    {
      "inputs": [],
      "name": "admin3",
      "outputs": [
        {
          "internalType": "address",
          "name": "",
          "type": "address"
        }
      ],
      "stateMutability": "view",
      "type": "function"
    },
    {
      "inputs": [],
      "name": "admin4",
      "outputs": [
        {
          "internalType": "address",
          "name": "",
          "type": "address"
        }
      ],
      "stateMutability": "view",
      "type": "function"
    },
    {
      "inputs": [
        {
          "internalType": "address",
          "name": "to",
          "type": "address"
        },
        {
          "internalType": "uint256",
          "name": "tokenId",
          "type": "uint256"
        }
      ],
      "name": "approve",
      "outputs": [],
      "stateMutability": "nonpayable",
      "type": "function"
    },
    {
      "inputs": [
        {
          "internalType": "address",
          "name": "owner",
          "type": "address"
        }
      ],
      "name": "balanceOf",
      "outputs": [
        {
          "internalType": "uint256",
          "name": "",
          "type": "uint256"
        }
      ],
      "stateMutability": "view",
      "type": "function"
    },
    {
      "inputs": [
        {
          "internalType": "uint256",
          "name": "tokenId",
          "type": "uint256"
        }
      ],
      "name": "getApproved",
      "outputs": [
        {
          "internalType": "address",
          "name": "",
          "type": "address"
        }
      ],
      "stateMutability": "view",
      "type": "function"
    },
    {
      "inputs": [
        {
          "internalType": "uint256",
          "name": "index",
          "type": "uint256"
        }
      ],
      "name": "getPrice",
      "outputs": [
        {
          "internalType": "uint256",
          "name": "",
          "type": "uint256"
        }
      ],
      "stateMutability": "view",
      "type": "function"
    },
    {
      "inputs": [
        {
          "internalType": "address",
          "name": "owner",
          "type": "address"
        },
        {
          "internalType": "address",
          "name": "operator",
          "type": "address"
        }
      ],
      "name": "isApprovedForAll",
      "outputs": [
        {
          "internalType": "bool",
          "name": "",
          "type": "bool"
        }
      ],
      "stateMutability": "view",
      "type": "function"
    },
    {
      "inputs": [
        {
          "internalType": "uint256",
          "name": "amount",
          "type": "uint256"
        }
      ],
      "name": "mint",
      "outputs": [],
      "stateMutability": "payable",
      "type": "function"
    },
    {
      "inputs": [
        {
          "internalType": "address",
          "name": "",
          "type": "address"
        }
      ],
      "name": "minted",
      "outputs": [
        {
          "internalType": "bool",
          "name": "",
          "type": "bool"
        }
      ],
      "stateMutability": "view",
      "type": "function"
    },
    {
      "inputs": [],
      "name": "name",
      "outputs": [
        {
          "internalType": "string",
          "name": "",
          "type": "string"
        }
      ],
      "stateMutability": "view",
      "type": "function"
    },
    {
      "inputs": [],
      "name": "owner",
      "outputs": [
        {
          "internalType": "address",
          "name": "",
          "type": "address"
        }
      ],
      "stateMutability": "view",
      "type": "function"
    },
    {
      "inputs": [
        {
          "internalType": "uint256",
          "name": "tokenId",
          "type": "uint256"
        }
      ],
      "name": "ownerOf",
      "outputs": [
        {
          "internalType": "address",
          "name": "",
          "type": "address"
        }
      ],
      "stateMutability": "view",
      "type": "function"
    },
    {
      "inputs": [],
      "name": "renounceOwnership",
      "outputs": [],
      "stateMutability": "nonpayable",
      "type": "function"
    },
    {
      "inputs": [
        {
          "internalType": "address",
          "name": "from",
          "type": "address"
        },
        {
          "internalType": "address",
          "name": "to",
          "type": "address"
        },
        {
          "internalType": "uint256",
          "name": "tokenId",
          "type": "uint256"
        }
      ],
      "name": "safeTransferFrom",
      "outputs": [],
      "stateMutability": "nonpayable",
      "type": "function"
    },
    {
      "inputs": [
        {
          "internalType": "address",
          "name": "from",
          "type": "address"
        },
        {
          "internalType": "address",
          "name": "to",
          "type": "address"
        },
        {
          "internalType": "uint256",
          "name": "tokenId",
          "type": "uint256"
        },
        {
          "internalType": "bytes",
          "name": "data",
          "type": "bytes"
        }
      ],
      "name": "safeTransferFrom",
      "outputs": [],
      "stateMutability": "nonpayable",
      "type": "function"
    },
    {
      "inputs": [],
      "name": "saleState",
      "outputs": [
        {
          "internalType": "uint8",
          "name": "",
          "type": "uint8"
        }
      ],
      "stateMutability": "view",
      "type": "function"
    },
    {
      "inputs": [
        {
          "internalType": "address",
          "name": "operator",
          "type": "address"
        },
        {
          "internalType": "bool",
          "name": "approved",
          "type": "bool"
        }
      ],
      "name": "setApprovalForAll",
      "outputs": [],
      "stateMutability": "nonpayable",
      "type": "function"
    },
    {
      "inputs": [
        {
          "internalType": "string",
          "name": "baseURI",
          "type": "string"
        }
      ],
      "name": "setBaseURI",
      "outputs": [],
      "stateMutability": "nonpayable",
      "type": "function"
    },
    {
      "inputs": [
        {
          "internalType": "string",
          "name": "newExtension",
          "type": "string"
        }
      ],
      "name": "setExtension",
      "outputs": [],
      "stateMutability": "nonpayable",
      "type": "function"
    },
    {
      "inputs": [],
      "name": "startPresale",
      "outputs": [],
      "stateMutability": "nonpayable",
      "type": "function"
    },
    {
      "inputs": [],
      "name": "startPublicSale",
      "outputs": [],
      "stateMutability": "nonpayable",
      "type": "function"
    },
    {
      "inputs": [
        {
          "internalType": "bytes4",
          "name": "interfaceId",
          "type": "bytes4"
        }
      ],
      "name": "supportsInterface",
      "outputs": [
        {
          "internalType": "bool",
          "name": "",
          "type": "bool"
        }
      ],
      "stateMutability": "view",
      "type": "function"
    },
    {
      "inputs": [],
      "name": "symbol",
      "outputs": [
        {
          "internalType": "string",
          "name": "",
          "type": "string"
        }
      ],
      "stateMutability": "view",
      "type": "function"
    },
    {
      "inputs": [
        {
          "internalType": "uint256",
          "name": "index",
          "type": "uint256"
        }
      ],
      "name": "tokenByIndex",
      "outputs": [
        {
          "internalType": "uint256",
          "name": "",
          "type": "uint256"
        }
      ],
      "stateMutability": "view",
      "type": "function"
    },
    {
      "inputs": [
        {
          "internalType": "address",
          "name": "owner",
          "type": "address"
        },
        {
          "internalType": "uint256",
          "name": "index",
          "type": "uint256"
        }
      ],
      "name": "tokenOfOwnerByIndex",
      "outputs": [
        {
          "internalType": "uint256",
          "name": "",
          "type": "uint256"
        }
      ],
      "stateMutability": "view",
      "type": "function"
    },
    {
      "inputs": [
        {
          "internalType": "uint256",
          "name": "tokenId",
          "type": "uint256"
        }
      ],
      "name": "tokenURI",
      "outputs": [
        {
          "internalType": "string",
          "name": "",
          "type": "string"
        }
      ],
      "stateMutability": "view",
      "type": "function"
    },
    {
      "inputs": [],
      "name": "totalMinted",
      "outputs": [
        {
          "internalType": "uint256",
          "name": "",
          "type": "uint256"
        }
      ],
      "stateMutability": "view",
      "type": "function"
    },
    {
      "inputs": [],
      "name": "totalSupply",
      "outputs": [
        {
          "internalType": "uint256",
          "name": "",
          "type": "uint256"
        }
      ],
      "stateMutability": "view",
      "type": "function"
    },
    {
      "inputs": [
        {
          "internalType": "address",
          "name": "from",
          "type": "address"
        },
        {
          "internalType": "address",
          "name": "to",
          "type": "address"
        },
        {
          "internalType": "uint256",
          "name": "tokenId",
          "type": "uint256"
        }
      ],
      "name": "transferFrom",
      "outputs": [],
      "stateMutability": "nonpayable",
      "type": "function"
    },
    {
      "inputs": [
        {
          "internalType": "address",
          "name": "newOwner",
          "type": "address"
        }
      ],
      "name": "transferOwnership",
      "outputs": [],
      "stateMutability": "nonpayable",
      "type": "function"
    },
    {
      "inputs": [
        {
          "internalType": "address",
          "name": "",
          "type": "address"
        }
      ],
      "name": "whitelisted",
      "outputs": [
        {
          "internalType": "bool",
          "name": "",
          "type": "bool"
        }
      ],
      "stateMutability": "view",
      "type": "function"
    },
    {
      "inputs": [],
      "name": "withdraw",
      "outputs": [],
      "stateMutability": "nonpayable",
      "type": "function"
    }
  ],
  "bytecode": "0x60c0604052601060809081526f697066733a2f2f69706673486173682f60801b60a052600b906200003190826200035d565b50604080518082019091526005815264173539b7b760d91b6020820152600c906200005d90826200035d565b50600d80546001600160a01b03199081167394910dc8cfebdbd884a40ad1bd67d6fdc49fa2a317909155600e80548216734995a7787816e2898c171d1064615ee7e4c3dd22179055600f80548216732b98dbf6e4af55fad3f509152a867849b358677f17905560108054909116734d1d39e722a26d485de95c9bada1e004690e79311790556040805160e0810182526802a802f8630a24000081526802ed6689e54f1800006020820152680332ca1b67940c0000918101919091526803782dace9d900000060608201526803bd913e6c1df400006080820152680402f4cfee62e8000060a0820152680448586170a7dc000060c08201526200016490601190600762000253565b50601b805460ff191690553480156200017c57600080fd5b506040518060400160405280600881526020016747686f7374204f4760c01b81525060405180604001604052806003815260200162474f4760e81b8152508160009081620001cb91906200035d565b506001620001da82826200035d565b505050620001f7620001f1620001fd60201b60201c565b62000201565b62000429565b3390565b600a80546001600160a01b038381166001600160a01b0319831681179093556040519116919082907f8be0079c531659141344cd1fd0a4f28419497f9722a3daafe3b4186f6b6457e090600090a35050565b82600781019282156200028f579160200282015b828111156200028f57825182906001600160481b031690559160200191906001019062000267565b506200029d929150620002a1565b5090565b5b808211156200029d5760008155600101620002a2565b634e487b7160e01b600052604160045260246000fd5b600181811c90821680620002e357607f821691505b6020821081036200030457634e487b7160e01b600052602260045260246000fd5b50919050565b601f8211156200035857600081815260208120601f850160051c81016020861015620003335750805b601f850160051c820191505b8181101562000354578281556001016200033f565b5050505b505050565b81516001600160401b03811115620003795762000379620002b8565b62000391816200038a8454620002ce565b846200030a565b602080601f831160018114620003c95760008415620003b05750858301515b600019600386901b1c1916600185901b17855562000354565b600085815260208120601f198616915b82811015620003fa57888601518255948401946001909101908401620003d9565b5085821015620004195787850151600019600388901b60f8161c191681555b5050505050600190811b01905550565b6126f880620004396000396000f3fe6080604052600436106102255760003560e01c8063603f4d5211610123578063a0712d68116100ab578063caa77ac71161006f578063caa77ac714610631578063d936547e14610651578063e757223014610681578063e985e9c5146106a1578063f2fde38b146106ea57600080fd5b8063a0712d68146105a8578063a22cb465146105bb578063a2309ff8146105db578063b88d4fde146105f1578063c87b56dd1461061157600080fd5b80637d4cb964116100f25780637d4cb9641461051f5780637e2285aa146105355780637f649783146105555780638da5cb5b1461057557806395d89b411461059357600080fd5b8063603f4d521461049e5780636352211e146104ca57806370a08231146104ea578063715018a61461050a57600080fd5b80631de46a78116101b15780633ccfd60b116101755780633ccfd60b1461041457806342842e0e1461042957806347289075146104495780634f6ccce71461045e57806355f804b31461047e57600080fd5b80631de46a78146103645780631e7269c51461038457806323b872dd146103b45780632b0c685a146103d45780632f745c59146103f457600080fd5b8063081812fc116101f8578063081812fc146102d0578063095ea7b3146102f05780630c1c972a14610310578063115976c41461032557806318160ddd1461034557600080fd5b806301ffc9a71461022a57806304c98b2b1461025f57806306a8f8a21461027657806306fdde03146102ae575b600080fd5b34801561023657600080fd5b5061024a610245366004611f24565b61070a565b60405190151581526020015b60405180910390f35b34801561026b57600080fd5b50610274610735565b005b34801561028257600080fd5b50600e54610296906001600160a01b031681565b6040516001600160a01b039091168152602001610256565b3480156102ba57600080fd5b506102c361074c565b6040516102569190611f98565b3480156102dc57600080fd5b506102966102eb366004611fab565b6107de565b3480156102fc57600080fd5b5061027461030b366004611fdb565b610805565b34801561031c57600080fd5b5061027461091f565b34801561033157600080fd5b50600d54610296906001600160a01b031681565b34801561035157600080fd5b506008545b604051908152602001610256565b34801561037057600080fd5b50600f54610296906001600160a01b031681565b34801561039057600080fd5b5061024a61039f366004612005565b60196020526000908152604090205460ff1681565b3480156103c057600080fd5b506102746103cf366004612020565b610936565b3480156103e057600080fd5b50601054610296906001600160a01b031681565b34801561040057600080fd5b5061035661040f366004611fdb565b610967565b34801561042057600080fd5b506102746109fd565b34801561043557600080fd5b50610274610444366004612020565b610b4d565b34801561045557600080fd5b50610356603281565b34801561046a57600080fd5b50610356610479366004611fab565b610b68565b34801561048a57600080fd5b506102746104993660046120fb565b610bfb565b3480156104aa57600080fd5b50601b546104b89060ff1681565b60405160ff9091168152602001610256565b3480156104d657600080fd5b506102966104e5366004611fab565b610c0f565b3480156104f657600080fd5b50610356610505366004612005565b610c6f565b34801561051657600080fd5b50610274610cf5565b34801561052b57600080fd5b50610356611b9e81565b34801561054157600080fd5b506102746105503660046120fb565b610d09565b34801561056157600080fd5b50610274610570366004612144565b610d15565b34801561058157600080fd5b50600a546001600160a01b0316610296565b34801561059f57600080fd5b506102c3610d83565b6102746105b6366004611fab565b610d92565b3480156105c757600080fd5b506102746105d63660046121f1565b6110a3565b3480156105e757600080fd5b5061035660185481565b3480156105fd57600080fd5b5061027461060c36600461222d565b6110ae565b34801561061d57600080fd5b506102c361062c366004611fab565b6110e6565b34801561063d57600080fd5b5061035661064c366004611fab565b61119a565b34801561065d57600080fd5b5061024a61066c366004612005565b601a6020526000908152604090205460ff1681565b34801561068d57600080fd5b5061035661069c366004611fab565b6111b1565b3480156106ad57600080fd5b5061024a6106bc3660046122a9565b6001600160a01b03918216600090815260056020908152604080832093909416825291909152205460ff1690565b3480156106f657600080fd5b50610274610705366004612005565b611231565b60006001600160e01b0319821663780e9d6360e01b148061072f575061072f826112aa565b92915050565b61073d6112fa565b601b805460ff19166001179055565b60606000805461075b906122dc565b80601f0160208091040260200160405190810160405280929190818152602001828054610787906122dc565b80156107d45780601f106107a9576101008083540402835291602001916107d4565b820191906000526020600020905b8154815290600101906020018083116107b757829003601f168201915b5050505050905090565b60006107e982611354565b506000908152600460205260409020546001600160a01b031690565b600061081082610c0f565b9050806001600160a01b0316836001600160a01b0316036108825760405162461bcd60e51b815260206004820152602160248201527f4552433732313a20617070726f76616c20746f2063757272656e74206f776e656044820152603960f91b60648201526084015b60405180910390fd5b336001600160a01b038216148061089e575061089e81336106bc565b6109105760405162461bcd60e51b815260206004820152603d60248201527f4552433732313a20617070726f76652063616c6c6572206973206e6f7420746f60448201527f6b656e206f776e6572206f7220617070726f76656420666f7220616c6c0000006064820152608401610879565b61091a83836113b3565b505050565b6109276112fa565b601b805460ff19166002179055565b6109403382611421565b61095c5760405162461bcd60e51b815260040161087990612316565b61091a8383836114a0565b600061097283610c6f565b82106109d45760405162461bcd60e51b815260206004820152602b60248201527f455243373231456e756d657261626c653a206f776e657220696e646578206f7560448201526a74206f6620626f756e647360a81b6064820152608401610879565b506001600160a01b03919091166000908152600660209081526040808320938352929052205490565b610a056112fa565b600d5447906001600160a01b03166108fc6103e8610a2584610113612379565b610a2f9190612390565b6040518115909202916000818181858888f19350505050158015610a57573d6000803e3d6000fd5b50600e546001600160a01b03166108fc6103e8610a768461012c612379565b610a809190612390565b6040518115909202916000818181858888f19350505050158015610aa8573d6000803e3d6000fd5b50600f546001600160a01b03166108fc6103e8610ac784610113612379565b610ad19190612390565b6040518115909202916000818181858888f19350505050158015610af9573d6000803e3d6000fd5b506010546001600160a01b03166108fc6103e8610b17846096612379565b610b219190612390565b6040518115909202916000818181858888f19350505050158015610b49573d6000803e3d6000fd5b5050565b61091a838383604051806020016040528060008152506110ae565b6000610b7360085490565b8210610bd65760405162461bcd60e51b815260206004820152602c60248201527f455243373231456e756d657261626c653a20676c6f62616c20696e646578206f60448201526b7574206f6620626f756e647360a01b6064820152608401610879565b60088281548110610be957610be96123b2565b90600052602060002001549050919050565b610c036112fa565b600b610b498282612416565b6000818152600260205260408120546001600160a01b03168061072f5760405162461bcd60e51b8152602060048201526018602482015277115490cdcc8c4e881a5b9d985b1a59081d1bdad95b88125160421b6044820152606401610879565b60006001600160a01b038216610cd95760405162461bcd60e51b815260206004820152602960248201527f4552433732313a2061646472657373207a65726f206973206e6f7420612076616044820152683634b21037bbb732b960b91b6064820152608401610879565b506001600160a01b031660009081526003602052604090205490565b610cfd6112fa565b610d076000611611565b565b600c610b498282612416565b610d1d6112fa565b60005b8151811015610b49576001601a6000848481518110610d4157610d416123b2565b6020908102919091018101516001600160a01b03168252810191909152604001600020805460ff1916911515919091179055610d7c816124d6565b9050610d20565b60606001805461075b906122dc565b601b5460ff16610dda5760405162461bcd60e51b815260206004820152601360248201527214d85b19481a5cc81b9bdd081cdd185c9d1959606a1b6044820152606401610879565b60008111610e2a5760405162461bcd60e51b815260206004820152601860248201527f496e73756666696369656e74206d696e7420616d6f756e7400000000000000006044820152606401610879565b6032811115610e745760405162461bcd60e51b815260206004820152601660248201527508af0c6cacac8e640dac2f040dccce840e0cae440e8f60531b6044820152606401610879565b611b9e81601854610e8591906124ef565b1115610ec65760405162461bcd60e51b815260206004820152601060248201526f45786365656473206d6178206e66747360801b6044820152606401610879565b601b5460009060ff16600103610fea5781600114610f265760405162461bcd60e51b815260206004820152601e60248201527f596f752063616e206f6e6c79206d696e74203120696e2070726573616c6500006044820152606401610879565b336000908152601a602052604090205460ff16610f855760405162461bcd60e51b815260206004820152601760248201527f596f7520617265206e6f742077686974656c69737465640000000000000000006044820152606401610879565b3360009081526019602052604090205460ff1615610fe55760405162461bcd60e51b815260206004820152601960248201527f596f7520616c7265616479206d696e74656420616e206e6674000000000000006044820152606401610879565b61106a565b50600160005b828211611024576110088260185461069c91906124ef565b61101290826124ef565b905061101d826124d6565b9150610ff0565b803410156110685760405162461bcd60e51b8152602060048201526011602482015270125b9cdd59999a58da595b9d08199d5b99607a1b6044820152606401610879565b505b5060005b81811015610b495761109333601860008154611089906124d6565b9182905550611663565b61109c816124d6565b905061106e565b610b4933838361167d565b6110b83383611421565b6110d45760405162461bcd60e51b815260040161087990612316565b6110e08484848461174b565b50505050565b6000818152600260205260409020546060906001600160a01b03166111655760405162461bcd60e51b815260206004820152602f60248201527f4552433732314d657461646174613a2055524920717565727920666f72206e6f60448201526e3732bc34b9ba32b73a103a37b5b2b760891b6064820152608401610879565b600b6111708361177e565b600c60405160200161118493929190612575565b6040516020818303038152906040529050919050565b601181600781106111aa57600080fd5b0154905081565b60006103e882116111c957601160005b015492915050565b6107d082116111db57601160016111c1565b610bb882116111ed57601160026111c1565b610fa082116111ff57601160036111c1565b611388821161121157601160046111c1565b611770821161122357601160056111c1565b601160066111c1565b919050565b6112396112fa565b6001600160a01b03811661129e5760405162461bcd60e51b815260206004820152602660248201527f4f776e61626c653a206e6577206f776e657220697320746865207a65726f206160448201526564647265737360d01b6064820152608401610879565b6112a781611611565b50565b60006001600160e01b031982166380ac58cd60e01b14806112db57506001600160e01b03198216635b5e139f60e01b145b8061072f57506301ffc9a760e01b6001600160e01b031983161461072f565b600a546001600160a01b03163314610d075760405162461bcd60e51b815260206004820181905260248201527f4f776e61626c653a2063616c6c6572206973206e6f7420746865206f776e65726044820152606401610879565b6000818152600260205260409020546001600160a01b03166112a75760405162461bcd60e51b8152602060048201526018602482015277115490cdcc8c4e881a5b9d985b1a59081d1bdad95b88125160421b6044820152606401610879565b600081815260046020526040902080546001600160a01b0319166001600160a01b03841690811790915581906113e882610c0f565b6001600160a01b03167f8c5be1e5ebec7d5bd14f71427d1e84f3dd0314c0f7b2291e5b200ac8c7c3b92560405160405180910390a45050565b60008061142d83610c0f565b9050806001600160a01b0316846001600160a01b0316148061147457506001600160a01b0380821660009081526005602090815260408083209388168352929052205460ff165b806114985750836001600160a01b031661148d846107de565b6001600160a01b0316145b949350505050565b826001600160a01b03166114b382610c0f565b6001600160a01b0316146114d95760405162461bcd60e51b8152600401610879906125a8565b6001600160a01b03821661153b5760405162461bcd60e51b8152602060048201526024808201527f4552433732313a207472616e7366657220746f20746865207a65726f206164646044820152637265737360e01b6064820152608401610879565b6115488383836001611811565b826001600160a01b031661155b82610c0f565b6001600160a01b0316146115815760405162461bcd60e51b8152600401610879906125a8565b600081815260046020908152604080832080546001600160a01b03199081169091556001600160a01b0387811680865260038552838620805460001901905590871680865283862080546001019055868652600290945282852080549092168417909155905184937fddf252ad1be2c89b69c2b068fc378daa952ba7f163c4a11628f55a4df523b3ef91a4505050565b600a80546001600160a01b038381166001600160a01b0319831681179093556040519116919082907f8be0079c531659141344cd1fd0a4f28419497f9722a3daafe3b4186f6b6457e090600090a35050565b610b49828260405180602001604052806000815250611951565b816001600160a01b0316836001600160a01b0316036116de5760405162461bcd60e51b815260206004820152601960248201527f4552433732313a20617070726f766520746f2063616c6c6572000000000000006044820152606401610879565b6001600160a01b03838116600081815260056020908152604080832094871680845294825291829020805460ff191686151590811790915591519182527f17307eab39ab6107e8899845ad3d59bd9653f200f220920489ca2b5937696c31910160405180910390a3505050565b6117568484846114a0565b61176284848484611984565b6110e05760405162461bcd60e51b8152600401610879906125ed565b6060600061178b83611a85565b600101905060008167ffffffffffffffff8111156117ab576117ab61205c565b6040519080825280601f01601f1916602001820160405280156117d5576020820181803683370190505b5090508181016020015b600019016f181899199a1a9b1b9c1cb0b131b232b360811b600a86061a8153600a85049450846117df57509392505050565b61181d84848484611b5d565b600181111561188c5760405162461bcd60e51b815260206004820152603560248201527f455243373231456e756d657261626c653a20636f6e7365637574697665207472604482015274185b9cd9995c9cc81b9bdd081cdd5c1c1bdc9d1959605a1b6064820152608401610879565b816001600160a01b0385166118e8576118e381600880546000838152600960205260408120829055600182018355919091527ff3f7a9fe364faab93b216da50a3214154f22a0a2b415b23a84c8169e8b636ee30155565b61190b565b836001600160a01b0316856001600160a01b03161461190b5761190b8582611be5565b6001600160a01b0384166119275761192281611c82565b61194a565b846001600160a01b0316846001600160a01b03161461194a5761194a8482611d31565b5050505050565b61195b8383611d75565b6119686000848484611984565b61091a5760405162461bcd60e51b8152600401610879906125ed565b60006001600160a01b0384163b15611a7a57604051630a85bd0160e11b81526001600160a01b0385169063150b7a02906119c890339089908890889060040161263f565b6020604051808303816000875af1925050508015611a03575060408051601f3d908101601f19168201909252611a009181019061267c565b60015b611a60573d808015611a31576040519150601f19603f3d011682016040523d82523d6000602084013e611a36565b606091505b508051600003611a585760405162461bcd60e51b8152600401610879906125ed565b805181602001fd5b6001600160e01b031916630a85bd0160e11b149050611498565b506001949350505050565b60008072184f03e93ff9f4daa797ed6e38ed64bf6a1f0160401b8310611ac45772184f03e93ff9f4daa797ed6e38ed64bf6a1f0160401b830492506040015b6d04ee2d6d415b85acef81000000008310611af0576d04ee2d6d415b85acef8100000000830492506020015b662386f26fc100008310611b0e57662386f26fc10000830492506010015b6305f5e1008310611b26576305f5e100830492506008015b6127108310611b3a57612710830492506004015b60648310611b4c576064830492506002015b600a831061072f5760010192915050565b60018111156110e0576001600160a01b03841615611ba3576001600160a01b03841660009081526003602052604081208054839290611b9d908490612699565b90915550505b6001600160a01b038316156110e0576001600160a01b03831660009081526003602052604081208054839290611bda9084906124ef565b909155505050505050565b60006001611bf284610c6f565b611bfc9190612699565b600083815260076020526040902054909150808214611c4f576001600160a01b03841660009081526006602090815260408083208584528252808320548484528184208190558352600790915290208190555b5060009182526007602090815260408084208490556001600160a01b039094168352600681528383209183525290812055565b600854600090611c9490600190612699565b60008381526009602052604081205460088054939450909284908110611cbc57611cbc6123b2565b906000526020600020015490508060088381548110611cdd57611cdd6123b2565b6000918252602080832090910192909255828152600990915260408082208490558582528120556008805480611d1557611d156126ac565b6001900381819060005260206000200160009055905550505050565b6000611d3c83610c6f565b6001600160a01b039093166000908152600660209081526040808320868452825280832085905593825260079052919091209190915550565b6001600160a01b038216611dcb5760405162461bcd60e51b815260206004820181905260248201527f4552433732313a206d696e7420746f20746865207a65726f20616464726573736044820152606401610879565b6000818152600260205260409020546001600160a01b031615611e305760405162461bcd60e51b815260206004820152601c60248201527f4552433732313a20746f6b656e20616c7265616479206d696e746564000000006044820152606401610879565b611e3e600083836001611811565b6000818152600260205260409020546001600160a01b031615611ea35760405162461bcd60e51b815260206004820152601c60248201527f4552433732313a20746f6b656e20616c7265616479206d696e746564000000006044820152606401610879565b6001600160a01b038216600081815260036020908152604080832080546001019055848352600290915280822080546001600160a01b0319168417905551839291907fddf252ad1be2c89b69c2b068fc378daa952ba7f163c4a11628f55a4df523b3ef908290a45050565b6001600160e01b0319811681146112a757600080fd5b600060208284031215611f3657600080fd5b8135611f4181611f0e565b9392505050565b60005b83811015611f63578181015183820152602001611f4b565b50506000910152565b60008151808452611f84816020860160208601611f48565b601f01601f19169290920160200192915050565b602081526000611f416020830184611f6c565b600060208284031215611fbd57600080fd5b5035919050565b80356001600160a01b038116811461122c57600080fd5b60008060408385031215611fee57600080fd5b611ff783611fc4565b946020939093013593505050565b60006020828403121561201757600080fd5b611f4182611fc4565b60008060006060848603121561203557600080fd5b61203e84611fc4565b925061204c60208501611fc4565b9150604084013590509250925092565b634e487b7160e01b600052604160045260246000fd5b604051601f8201601f1916810167ffffffffffffffff8111828210171561209b5761209b61205c565b604052919050565b600067ffffffffffffffff8311156120bd576120bd61205c565b6120d0601f8401601f1916602001612072565b90508281528383830111156120e457600080fd5b828260208301376000602084830101529392505050565b60006020828403121561210d57600080fd5b813567ffffffffffffffff81111561212457600080fd5b8201601f8101841361213557600080fd5b611498848235602084016120a3565b6000602080838503121561215757600080fd5b823567ffffffffffffffff8082111561216f57600080fd5b818501915085601f83011261218357600080fd5b8135818111156121955761219561205c565b8060051b91506121a6848301612072565b81815291830184019184810190888411156121c057600080fd5b938501935b838510156121e5576121d685611fc4565b825293850193908501906121c5565b98975050505050505050565b6000806040838503121561220457600080fd5b61220d83611fc4565b91506020830135801515811461222257600080fd5b809150509250929050565b6000806000806080858703121561224357600080fd5b61224c85611fc4565b935061225a60208601611fc4565b925060408501359150606085013567ffffffffffffffff81111561227d57600080fd5b8501601f8101871361228e57600080fd5b61229d878235602084016120a3565b91505092959194509250565b600080604083850312156122bc57600080fd5b6122c583611fc4565b91506122d360208401611fc4565b90509250929050565b600181811c908216806122f057607f821691505b60208210810361231057634e487b7160e01b600052602260045260246000fd5b50919050565b6020808252602d908201527f4552433732313a2063616c6c6572206973206e6f7420746f6b656e206f776e6560408201526c1c881bdc88185c1c1c9bdd9959609a1b606082015260800190565b634e487b7160e01b600052601160045260246000fd5b808202811582820484141761072f5761072f612363565b6000826123ad57634e487b7160e01b600052601260045260246000fd5b500490565b634e487b7160e01b600052603260045260246000fd5b601f82111561091a57600081815260208120601f850160051c810160208610156123ef5750805b601f850160051c820191505b8181101561240e578281556001016123fb565b505050505050565b815167ffffffffffffffff8111156124305761243061205c565b6124448161243e84546122dc565b846123c8565b602080601f83116001811461247957600084156124615750858301515b600019600386901b1c1916600185901b17855561240e565b600085815260208120601f198616915b828110156124a857888601518255948401946001909101908401612489565b50858210156124c65787850151600019600388901b60f8161c191681555b5050505050600190811b01905550565b6000600182016124e8576124e8612363565b5060010190565b8082018082111561072f5761072f612363565b6000815461250f816122dc565b60018281168015612527576001811461253c5761256b565b60ff198416875282151583028701945061256b565b8560005260208060002060005b858110156125625781548a820152908401908201612549565b50505082870194505b5050505092915050565b60006125818286612502565b8451612591818360208901611f48565b61259d81830186612502565b979650505050505050565b60208082526025908201527f4552433732313a207472616e736665722066726f6d20696e636f72726563742060408201526437bbb732b960d91b606082015260800190565b60208082526032908201527f4552433732313a207472616e7366657220746f206e6f6e20455243373231526560408201527131b2b4bb32b91034b6b83632b6b2b73a32b960711b606082015260800190565b6001600160a01b038581168252841660208201526040810183905260806060820181905260009061267290830184611f6c565b9695505050505050565b60006020828403121561268e57600080fd5b8151611f4181611f0e565b8181038181111561072f5761072f612363565b634e487b7160e01b600052603160045260246000fdfea26469706673582212207e84f1a01c420d792a45fe77907170b65cceb80aa69c5759fe55bda2b181297d64736f6c63430008110033",
  "linkReferences": {},
  "deployedLinkReferences": {}
}